{
  "_format": "hh-sol-artifact-1",
  "contractName": "cvgRewards",
  "sourceName": "contracts/Rewards/cvgRewards.sol",
  "abi": [
    {
      "inputs": [
        {
          "internalType": "contract IcvgControlTower",
          "name": "_cvgControlTower",
          "type": "address"
        }
      ],
      "stateMutability": "nonpayable",
      "type": "constructor"
    },
    {
      "anonymous": false,
      "inputs": [
        {
          "indexed": true,
          "internalType": "address",
          "name": "previousOwner",
          "type": "address"
        },
        {
          "indexed": true,
          "internalType": "address",
          "name": "newOwner",
          "type": "address"
        }
      ],
      "name": "OwnershipTransferred",
      "type": "event"
    },
    {
      "inputs": [
        {
          "internalType": "uint256",
          "name": "",
          "type": "uint256"
        }
      ],
      "name": "adjustmentInflation",
      "outputs": [
        {
          "internalType": "uint256",
          "name": "",
          "type": "uint256"
        }
      ],
      "stateMutability": "view",
      "type": "function"
    },
    {
      "inputs": [
        {
          "internalType": "uint256",
          "name": "cvgCycle",
          "type": "uint256"
        },
        {
          "internalType": "uint256",
          "name": "inflationType",
          "type": "uint256"
        }
      ],
      "name": "computeCvgInflation",
      "outputs": [
        {
          "internalType": "uint256",
          "name": "",
          "type": "uint256"
        }
      ],
      "stateMutability": "view",
      "type": "function"
    },
    {
      "inputs": [],
      "name": "cvgControlTower",
      "outputs": [
        {
          "internalType": "contract IcvgControlTower",
          "name": "",
          "type": "address"
        }
      ],
      "stateMutability": "view",
      "type": "function"
    },
    {
      "inputs": [],
      "name": "owner",
      "outputs": [
        {
          "internalType": "address",
          "name": "",
          "type": "address"
        }
      ],
      "stateMutability": "view",
      "type": "function"
    },
    {
      "inputs": [],
      "name": "renounceOwnership",
      "outputs": [],
      "stateMutability": "nonpayable",
      "type": "function"
    },
    {
      "inputs": [
        {
          "components": [
            {
              "internalType": "uint256",
              "name": "cycleId",
              "type": "uint256"
            },
            {
              "internalType": "uint256",
              "name": "value",
              "type": "uint256"
            }
          ],
          "internalType": "struct cvgRewards.AdjustmentInflation",
          "name": "inflationData",
          "type": "tuple"
        }
      ],
      "name": "setAdjustmentInflation",
      "outputs": [],
      "stateMutability": "nonpayable",
      "type": "function"
    },
    {
      "inputs": [
        {
          "components": [
            {
              "internalType": "uint256",
              "name": "cycleId",
              "type": "uint256"
            },
            {
              "internalType": "uint256",
              "name": "value",
              "type": "uint256"
            }
          ],
          "internalType": "struct cvgRewards.AdjustmentInflation[]",
          "name": "inflationData",
          "type": "tuple[]"
        }
      ],
      "name": "setAdjustmentInflationArray",
      "outputs": [],
      "stateMutability": "nonpayable",
      "type": "function"
    },
    {
      "inputs": [],
      "name": "test",
      "outputs": [],
      "stateMutability": "nonpayable",
      "type": "function"
    },
    {
      "inputs": [
        {
          "internalType": "address",
          "name": "newOwner",
          "type": "address"
        }
      ],
      "name": "transferOwnership",
      "outputs": [],
      "stateMutability": "nonpayable",
      "type": "function"
    }
  ],
  "bytecode": "0x608060405234801561001057600080fd5b5060405161083238038061083283398101604081905261002f916100ad565b6100383361005d565b600180546001600160a01b0319166001600160a01b03929092169190911790556100db565b600080546001600160a01b038381166001600160a01b0319831681178455604051919092169283917f8be0079c531659141344cd1fd0a4f28419497f9722a3daafe3b4186f6b6457e09190a35050565b6000602082840312156100be578081fd5b81516001600160a01b03811681146100d4578182fd5b9392505050565b610748806100ea6000396000f3fe608060405234801561001057600080fd5b50600436106100935760003560e01c80638da5cb5b116100665780638da5cb5b14610113578063ad549b5514610124578063d5e0aecf14610137578063f2fde38b1461014a578063f8a8fd6d1461015d57600080fd5b8063073b662c146100985780633882024b146100be5780634bb570d4146100e9578063715018a614610109575b600080fd5b6100ab6100a636600461066a565b610165565b6040519081526020015b60405180910390f35b6001546100d1906001600160a01b031681565b6040516001600160a01b0390911681526020016100b5565b6100ab6100f7366004610652565b60026020526000908152604090205481565b610111610229565b005b6000546001600160a01b03166100d1565b6101116101323660046105cb565b610294565b61011161014536600461063b565b610378565b61011161015836600461059d565b6103ec565b6101116104b7565b60008082600114610181576a094e47b8d681715340000061018e565b6a31a17e847807b1bc0000005b60008581526002602052604081205491925090670de0b6b3a7640000906101b69084906106ab565b6101c0919061068b565b905084600114156101d45791506102239050565b6000670de0b6b3a7640000836002836101ee60018b6106ca565b81526020019081526020016000205461020791906106ab565b610211919061068b565b905061021d81836106ca565b93505050505b92915050565b6000546001600160a01b031633146102885760405162461bcd60e51b815260206004820181905260248201527f4f776e61626c653a2063616c6c6572206973206e6f7420746865206f776e657260448201526064015b60405180910390fd5b6102926000610540565b565b6000546001600160a01b031633146102ee5760405162461bcd60e51b815260206004820181905260248201527f4f776e61626c653a2063616c6c6572206973206e6f7420746865206f776e6572604482015260640161027f565b60005b818110156103735782828281811061031957634e487b7160e01b600052603260045260246000fd5b905060400201602001356002600085858581811061034757634e487b7160e01b600052603260045260246000fd5b60409081029290920135835250602082019290925201600020558061036b816106e1565b9150506102f1565b505050565b6000546001600160a01b031633146103d25760405162461bcd60e51b815260206004820181905260248201527f4f776e61626c653a2063616c6c6572206973206e6f7420746865206f776e6572604482015260640161027f565b803560009081526002602090815260409091209101359055565b6000546001600160a01b031633146104465760405162461bcd60e51b815260206004820181905260248201527f4f776e61626c653a2063616c6c6572206973206e6f7420746865206f776e6572604482015260640161027f565b6001600160a01b0381166104ab5760405162461bcd60e51b815260206004820152602660248201527f4f776e61626c653a206e6577206f776e657220697320746865207a65726f206160448201526564647265737360d01b606482015260840161027f565b6104b481610540565b50565b6000546001600160a01b031633146105115760405162461bcd60e51b815260206004820181905260248201527f4f776e61626c653a2063616c6c6572206973206e6f7420746865206f776e6572604482015260640161027f565b60008052600260208190527fac33ff75c19e70fe83507db0d683fd3465c996598dc972688b7ace676c89077b55565b600080546001600160a01b0383811673ffffffffffffffffffffffffffffffffffffffff19831681178455604051919092169283917f8be0079c531659141344cd1fd0a4f28419497f9722a3daafe3b4186f6b6457e09190a35050565b6000602082840312156105ae578081fd5b81356001600160a01b03811681146105c4578182fd5b9392505050565b600080602083850312156105dd578081fd5b823567ffffffffffffffff808211156105f4578283fd5b818501915085601f830112610607578283fd5b813581811115610615578384fd5b8660208260061b8501011115610629578384fd5b60209290920196919550909350505050565b60006040828403121561064c578081fd5b50919050565b600060208284031215610663578081fd5b5035919050565b6000806040838503121561067c578182fd5b50508035926020909101359150565b6000826106a657634e487b7160e01b81526012600452602481fd5b500490565b60008160001904831182151516156106c5576106c56106fc565b500290565b6000828210156106dc576106dc6106fc565b500390565b60006000198214156106f5576106f56106fc565b5060010190565b634e487b7160e01b600052601160045260246000fdfea2646970667358221220d7ec7f9566fdd9db3daad5c607015a5385b82a82cb53125a1b67a20146cd22a264736f6c63430008040033",
  "linkReferences": {},
  "deployedLinkReferences": {}
}